:100000000C9435000C945D000C945D000C945D0024
:100010000C945D000C945D000C945D000C945D00EC
:100020000C945D000C945D000C945D000C945D00DC
:100030000C945D000C945D000C945D000C945D00CC
:100040000C94D7000C945D000C941E040C94610475
:100050000C945D000C945D000C945D000C945D00AC
:100060000C945D000C945D00200511241FBECFEFA1
:10007000D8E0DEBFCDBF11E0A0E0B1E0E2EFFFE0ED
:1000800002C005900D92A432B107D9F721E0A4E295
:10009000B1E001C01D92A03EB207E1F710E0C5E358
:1000A000D0E004C02197FE010E94D807C433D107D5
:1000B000C9F70E94B3010C94F7070C94000040E8C4
:1000C00055E260E070E082E391E00E949C0482E3EC
:1000D00091E00C9484030F931F93CF93DF93CDB7DC
:1000E000DEB72A970FB6F894DEBF0FBECDBF82E30E
:1000F00091E00E948403181619060CF041C045E0F7
:1001000050E064E271E082E391E00E948B0580910F
:1001100024018887809125018987809126018A871B
:10012000009127011091280166E071E082E391E0DF
:100130000E94BB02BE01685F7F4FCE0101960E9404
:100140002E026AE071E0CE0101960E9444028823EB
:1001500079F0612F110F770B600F711D07FD7A95F4
:10016000605671094AE050E082E391E00E94720318
:1001700082E391E00E94D003CE0101960E94C0016B
:100180006EE071E082E391E00E94BB0268EE73E0F2
:1001900080E090E00E9452012A960FB6F894DEBFEC
:1001A0000FBECDBFDF91CF911F910F9108951F9288
:1001B0000F920FB60F9211242F933F938F939F931B
:1001C000AF93BF9380912A0190912B01A0912C01B4
:1001D000B0912D013091290123E0230F2D3720F418
:1001E0000196A11DB11D05C026E8230F0296A11D91
:1001F000B11D2093290180932A0190932B01A09394
:100200002C01B0932D0180912E0190912F01A0918E
:100210003001B09131010196A11DB11D80932E01D5
:1002200090932F01A0933001B0933101BF91AF9112
:100230009F918F913F912F910F900FBE0F901F9024
:1002400018952FB7F89460912A0170912B01809135
:100250002C0190912D012FBF08953FB7F894809104
:100260002E0190912F01A0913001B091310126B55E
:10027000A89B05C02F3F19F00196A11DB11D3FBFDE
:10028000BA2FA92F982F8827820F911DA11DB11D6C
:10029000BC01CD0142E0660F771F881F991F4A9568
:1002A000D1F70895CF92DF92EF92FF92CF93DF9331
:1002B0006B017C010E942D01EB01C114D104E1040A
:1002C000F10479F00E942D016C1B7D0B683E734098
:1002D000A0F381E0C81AD108E108F108C851DC4F49
:1002E000ECCFDF91CF91FF90EF90DF90CF9008950A
:1002F000789484B5826084BD84B5816084BD85B501
:10030000826085BD85B5816085BDEEE6F0E08081C7
:1003100081608083E1E8F0E01082808182608083E8
:10032000808181608083E0E8F0E08081816080836B
:10033000E1EBF0E0808184608083E0EBF0E080819D
:1003400081608083EAE7F0E080818460808380813F
:1003500082608083808181608083808180688083E7
:100360001092C10008950E9478010E945F00C8E5C4
:10037000D4E00E946B002097E1F30E945804F9CF6B
:10038000FC01808191810C942D07CF93DF93EC01C8
:1003900088819981009711F00E942D071982188297
:1003A0001D821C821B821A82DF91CF9108950F93C8
:1003B0001F93CF93DF93EC018B016F5F7F4F888199
:1003C00099810E94B005009731F0998388831B833F
:1003D0000A8381E001C080E0DF91CF911F910F91EE
:1003E0000895CF93DF93EC0188819981892B29F0BF
:1003F0008A819B818617970760F4CE010E94D701FE
:10040000882341F08C819D81892B19F4E881F98141
:10041000108281E0DF91CF910895EF92FF920F93C8
:100420001F93CF93DF93EC017B018A01BA010E94F5
:10043000F101811104C0CE010E94C50107C01D83D6
:100440000C83B701888199810E94F007CE01DF916A
:10045000CF911F910F91FF90EF900895FC011182B1
:100460001082138212821582148216826115710520
:1004700051F0FB0101900020E9F73197AF01461BD5
:10048000570B0C940D020895FC0124813581232B18
:1004900031F421E061157105A1F0FB0108C0FC01F8
:1004A000808191816115710531F421E0FC01808129
:1004B000882339F005C00E94E70721E0892B09F065
:1004C00020E0822F0895CF92DF92EF92FF920F9358
:1004D0001F93CF93DF936C01EB017B01E40EF51EBC
:1004E00000E010E0CE15DF0561F06991D601ED91D5
:1004F000FC910190F081E02DC6010995080F191FAC
:10050000F1CFC801DF91CF911F910F91FF90EF9034
:10051000DF90CF9008956115710579F0FB0101908E
:100520000020E9F73197AF01461B570BDC01ED9135
:10053000FC910280F381E02D099480E090E0089521
:10054000DC01ED91FC910190F081E02D09940F9375
:100550001F93CF93DF93EC016DE00E94A0028C010A
:100560006AE0CE010E94A002800F911FDF91CF911F
:100570001F910F9108950F931F93CF93DF93EC0179
:100580000E948B028C01CE010E94A702800F911F56
:10059000DF91CF911F910F9108958F929F92AF920B
:1005A000BF92CF92DF92EF92FF920F931F93CF9360
:1005B000DF93CDB7DEB7A1970FB6F894DEBF0FBEBD
:1005C000CDBF6C01142FE52FCB01022F19A22230D1
:1005D00008F40AE07E0121E2E20EF11C802E912C4B
:1005E000A12CB12C612F7E2FA50194010E94B6078A
:1005F000029F1019112481E0E81AF1081A3014F44E
:10060000105D01C0195CF7011083122FE32FCA019E
:10061000232B242B252B31F7B701C6010E948B0217
:10062000A1960FB6F894DEBF0FBECDBFDF91CF917C
:100630001F910F91FF90EF90DF90CF90BF90AF9000
:100640009F908F900895CF92DF92EF92FF920F9339
:100650001F93CF93DF932115310581F4DC01ED91D8
:10066000FC910190F081E02D642FDF91CF911F91DB
:100670000F91FF90EF90DF90CF9009942A303105D1
:1006800001F577FF1DC06A017B01EC016DE20E945C
:10069000A0028C0144275527BA014C195D096E0947
:1006A0007F092AE0CE010E94CD02800F911FDF91C9
:1006B000CF911F910F91FF90EF90DF90CF90089511
:1006C0002AE0DF91CF911F910F91FF90EF90DF9083
:1006D000CF900C94CD029A01AB01770F660B770B8C
:1006E0000C9423030F931F93CF93DF93EC010E948D
:1006F0006B038C01CE010E94A702800F911FDF9136
:10070000CF911F910F910895FC0124853585F90142
:10071000E05CFF4F80819181329620813181821B84
:10072000930B8F7399270895DC011C96ED91FC9132
:100730001D97DF01A05CBF4F2D913C911197129640
:100740008D919C9111972817390739F08D919C91C3
:10075000E80FF91F808190E008958FEF9FEF0895D3
:10076000FC01A485B585FD01E05CFF4F208131814E
:100770003296808191812817390779F080819181A3
:10078000A80FB91F8C91208131812F5F3F4F2F73AC
:1007900033273183208390E008958FEF9FEF0895F2
:1007A000FC0181A1882329F0A489B5898C9186FF59
:1007B000FBCF11A208950F931F93CF93DF93FC01FA
:1007C000A685B7858D01005C1F4FE801888199815E
:1007D00001968F739927AD014E5B5F4FEA01288127
:1007E000398128173907D1F3E80128813981A20F0F
:1007F000B31F6C93A685B785A05CBF4F11969C93E1
:100800008E93A689B7892C9181E090E0078C02C075
:10081000880F991F0A94E2F7822B8C9381E081A3C1
:100820000488F589E02D80818064808381E090E0F8
:10083000DF91CF911F910F91089508951F920F920C
:100840000FB60F9211242F934F935F938F939F9323
:10085000EF93FF938091C00082FD1CC02091C600E1
:100860008091D8019091D9014091DA015091DB013A
:1008700001968F7399274817590771F0E091D801B5
:10088000F091D901E856FE4F20839093D9018093CF
:10089000D80102C08091C600FF91EF919F918F9186
:1008A0005F914F912F910F900FBE0F901F90189551
:1008B00082E391E00E948403892B11F00C941D04C3
:1008C00008951F920F920FB60F9211242F933F930A
:1008D0008F939F93EF93FF93209194013091950113
:1008E00080919601909197012817390731F48091F2
:1008F000C1008F7D8093C10014C0E0919601F091FA
:100900009701EC5AFE4F20818091960190919701BA
:1009100001968F7399279093970180939601209366
:10092000C600FF91EF919F918F913F912F910F9072
:100930000FBE0F901F901895CF92DF92EF92FF920B
:10094000CF93DF93EC016A017B014115514E6105A4
:10095000710509F1EC89FD8981E090E008A002C0F1
:10096000880F991F0A94E2F7808360E079E08DE3B5
:1009700090E0A70196010E94B607DA01C90101972C
:10098000A109B109B695A795979587959C01211561
:1009900080E13807A8F0EC89FD89108260E874E8EE
:1009A0008EE190E0A70196010E94B607DA01C90125
:1009B0000197A109B109B695A795979587959C01CF
:1009C000E889F9893083EA89FB89208319A2EE89B5
:1009D000FF89408181E090E09C010C8C02C0220FD5
:1009E000331F0A94E2F7242B2083EE89FF8940818C
:1009F0009C010D8C02C0220F331F0A94E2F7242BB6
:100A00002083EE89FF8940819C010E8C02C0220F59
:100A1000331F0A94E2F7242B2083EE89FF8920817B
:100A20000F8C02C0880F991F0A94E2F780958223E9
:100A30008083DF91CF91FF90EF90DF90CF9008956A
:100A4000E2E3F1E01382128288EE93E0A0E0B0E0EE
:100A500084839583A683B78387E191E09183808324
:100A600088E991E09587848784E591E09787868778
:100A700085EC90E0918B808B84EC90E0938B828B63
:100A800080EC90E0958B848B81EC90E0978B868B4B
:100A900082EC90E0918F808F86EC90E0938F828F34
:100AA00084E0848F83E0858F87E0868F85E0878F61
:100AB00081E080A308950F931F93CF93DF93EC0100
:100AC0000E942101688779878A879B87E881F9815D
:100AD0000680F781E02DCE01099597FF17C00E948F
:100AE0002101088519852A853B85DC01CB01801B06
:100AF000910BA20BB30B0C811D812E813F818017BE
:100B00009107A207B30710F38FEF9FEFDF91CF910B
:100B10001F910F910895CF92DF92EF92FF920F9362
:100B20001F93CF93DF936C017A018B01C0E0D0E07B
:100B3000CE15DF0559F0C6010E945B0597FD05C083
:100B4000F80181938F012196F3CF7E01C701DF91D8
:100B5000CF911F910F91FF90EF90DF90CF9008956C
:100B60006F927F928F929F92AF92BF92CF92DF92BD
:100B7000EF92FF920F931F93CF93DF93009789F427
:100B8000CB01DF91CF911F910F91FF90EF90DF90FC
:100B9000CF90BF90AF909F908F907F906F900C946C
:100BA0009506FC01E60FF71F9C0122503109E21760
:100BB000F30708F4A9C0EC01D9010D911C9111971C
:100BC00006171707B0F00530110508F49BC0C801DF
:100BD00004978617970708F495C002501109061B61
:100BE000170B019311936D937C93CF010E942D07F6
:100BF00089C05B01A01AB10A4C01800E911EA09120
:100C0000DE01B091DF01612C712CE12CF12C1097E9
:100C100009F446C08D919C911197A815B905B1F5BD
:100C20006C0142E0C40ED11CCA14DB0478F14C0103
:100C30008A189B08640142E0C40ED11C1296BC9035
:100C400012971396AC91B5E0CB16D10440F0B28266
:100C5000A38391828082D9016D937C9309C00E5F3A
:100C60001F4F800F911FF90191838083EB2DFA2F85
:100C7000E114F10431F0D7011396FC93EE9312972F
:100C800041C0F093DF01E093DE013CC068167906B5
:100C900008F43C017D0112960D90BC91A02DB7CFB8
:100CA0008091DC019091DD0188169906E1F46616C9
:100CB0007706C8F48091000190910101009741F4FA
:100CC0008DB79EB74091040150910501841B950B8F
:100CD000E817F907C8F4F093DD01E093DC01F901AE
:100CE000718360830FC0CB010E9495067C01009741
:100CF00059F0A801BE010E94DE07CE010E942D0717
:100D0000C70104C0CE0102C080E090E0DF91CF9126
:100D10001F910F91FF90EF90DF90CF90BF90AF9019
:100D20009F908F907F906F9008950F931F93CF9314
:100D3000DF938230910510F482E090E0E091DE01D3
:100D4000F091DF0120E030E0A0E0B0E0309719F151
:100D5000408151810281138148175907C8F08417D7
:100D6000950769F4109731F012960C931297139629
:100D70001C9327C00093DE011093DF0122C02115D0
:100D8000310519F04217530718F49A01BD01EF011C
:100D9000DF01F801DBCF21153105F9F0281B390BF4
:100DA0002430310580F48A819B816115710521F021
:100DB000FB019383828304C09093DF018093DE0163
:100DC000FE01329644C0FE01E20FF31F819391931E
:100DD00022503109398328833AC02091DC013091B7
:100DE000DD01232B41F42091020130910301309366
:100DF000DD012093DC0120910001309101012115DA
:100E0000310541F42DB73EB74091040150910501E1
:100E1000241B350BE091DC01F091DD01E217F307B3
:100E2000A0F42E1B3F0B2817390778F0AC014E5F5A
:100E30005F4F2417350748F04E0F5F1F5093DD01B9
:100E40004093DC018193919302C0E0E0F0E0CF0198
:100E5000DF91CF911F910F910895CF93DF9300976A
:100E600009F481C0FC01329713821282A091DE0145
:100E7000B091DF01109781F420813181820F931F9F
:100E80002091DC013091DD012817390751F5F093ED
:100E9000DD01E093DC0167C0ED0120E030E0CE171A
:100EA000DF0740F44A815B819E0141155105F1F055
:100EB000EA01F5CFD383C28340815181840F951F0E
:100EC000C817D90759F488819981840F951F029614
:100ED000918380838A819B8193838283211531054D
:100EE00029F4F093DF01E093DE013DC0E901FB83CB
:100EF000EA8349915991C40FD51FEC17FD0761F49E
:100F000080819181840F951F0296E90199838883DE
:100F1000828193819B838A83E0E0F0E012968D9139
:100F20009C911397009719F0FD01DC01F7CF8D918B
:100F30009C9111979D012E5F3F4F820F931F20912F
:100F4000DC013091DD012817390769F4309729F465
:100F50001092DF011092DE0102C013821282B09360
:100F6000DD01A093DC01DF91CF910895A1E21A2E5B
:100F7000AA1BBB1BFD010DC0AA1FBB1FEE1FFF1F3D
:100F8000A217B307E407F50720F0A21BB30BE40B8D
:100F9000F50B661F771F881F991F1A9469F76095D4
:100FA0007095809590959B01AC01BD01CF0108958E
:100FB000EE0FFF1F0590F491E02D0994FB01DC0179
:100FC00002C001900D9241505040D8F70895FB01A6
:100FD000DC018D91019080190110D9F3990B0895CE
:100FE000FB01DC0101900D920020E1F70895F894D7
:020FF000FFCF31
:100FF2000000E001800061636B0061646400616372
:101002006B790000000000DB0363028403B00394E9
:0410120003D0030004
:00000001FF
